{
  "contractName": "Auction",
  "abi": [
    {
      "constant": true,
      "inputs": [],
      "name": "bid",
      "outputs": [
        {
          "name": "",
          "type": "uint256"
        }
      ],
      "payable": false,
      "stateMutability": "view",
      "type": "function"
    },
    {
      "constant": true,
      "inputs": [],
      "name": "auctioneer",
      "outputs": [
        {
          "name": "",
          "type": "address"
        }
      ],
      "payable": false,
      "stateMutability": "view",
      "type": "function"
    },
    {
      "constant": true,
      "inputs": [],
      "name": "highestBidder",
      "outputs": [
        {
          "name": "",
          "type": "address"
        }
      ],
      "payable": false,
      "stateMutability": "view",
      "type": "function"
    },
    {
      "constant": true,
      "inputs": [],
      "name": "good",
      "outputs": [
        {
          "name": "",
          "type": "string"
        }
      ],
      "payable": false,
      "stateMutability": "view",
      "type": "function"
    },
    {
      "constant": true,
      "inputs": [],
      "name": "running",
      "outputs": [
        {
          "name": "",
          "type": "bool"
        }
      ],
      "payable": false,
      "stateMutability": "view",
      "type": "function"
    },
    {
      "inputs": [],
      "payable": false,
      "stateMutability": "nonpayable",
      "type": "constructor"
    },
    {
      "anonymous": false,
      "inputs": [
        {
          "indexed": false,
          "name": "from",
          "type": "address"
        },
        {
          "indexed": false,
          "name": "good",
          "type": "string"
        },
        {
          "indexed": false,
          "name": "bid",
          "type": "uint256"
        },
        {
          "indexed": false,
          "name": "timestamp",
          "type": "uint256"
        }
      ],
      "name": "BidReceived",
      "type": "event"
    },
    {
      "anonymous": false,
      "inputs": [
        {
          "indexed": false,
          "name": "auctioneer",
          "type": "address"
        },
        {
          "indexed": false,
          "name": "good",
          "type": "string"
        },
        {
          "indexed": false,
          "name": "timestamp",
          "type": "uint256"
        }
      ],
      "name": "AuctionStarted",
      "type": "event"
    },
    {
      "constant": false,
      "inputs": [],
      "name": "sendBid",
      "outputs": [],
      "payable": true,
      "stateMutability": "payable",
      "type": "function"
    },
    {
      "constant": false,
      "inputs": [
        {
          "name": "_good",
          "type": "string"
        }
      ],
      "name": "startAuction",
      "outputs": [],
      "payable": false,
      "stateMutability": "nonpayable",
      "type": "function"
    },
    {
      "constant": false,
      "inputs": [],
      "name": "endAuction",
      "outputs": [],
      "payable": false,
      "stateMutability": "nonpayable",
      "type": "function"
    }
  ],
  "bytecode": "0x608060405234801561001057600080fd5b506000600460006101000a81548160ff0219169083151502179055506000600160006101000a81548173ffffffffffffffffffffffffffffffffffffffff021916908373ffffffffffffffffffffffffffffffffffffffff1602179055506000808190555060206040519081016040528060008152506003908051906020019061009b9291906100a1565b50610146565b828054600181600116156101000203166002900490600052602060002090601f016020900481019282601f106100e257805160ff1916838001178555610110565b82800160010185558215610110579182015b8281111561010f5782518255916020019190600101906100f4565b5b50905061011d9190610121565b5090565b61014391905b8082111561013f576000816000905550600101610127565b5090565b90565b6109a6806101556000396000f30060806040526004361061008e576000357c0100000000000000000000000000000000000000000000000000000000900463ffffffff1680631998aeef146100935780635ec2c7bf146100be57806373dc756c1461011557806391f901571461017e578063953ef4ed146101d5578063aa8fb40b146101df578063d85bd5261461026f578063fe67a54b1461029e575b600080fd5b34801561009f57600080fd5b506100a86102b5565b6040518082815260200191505060405180910390f35b3480156100ca57600080fd5b506100d36102bb565b604051808273ffffffffffffffffffffffffffffffffffffffff1673ffffffffffffffffffffffffffffffffffffffff16815260200191505060405180910390f35b34801561012157600080fd5b5061017c600480360381019080803590602001908201803590602001908080601f01602080910402602001604051908101604052809392919081815260200183838082843782019150505050505091929192905050506102e1565b005b34801561018a57600080fd5b5061019361044b565b604051808273ffffffffffffffffffffffffffffffffffffffff1673ffffffffffffffffffffffffffffffffffffffff16815260200191505060405180910390f35b6101dd610471565b005b3480156101eb57600080fd5b506101f46106a0565b6040518080602001828103825283818151815260200191508051906020019080838360005b83811015610234578082015181840152602081019050610219565b50505050905090810190601f1680156102615780820380516001836020036101000a031916815260200191505b509250505060405180910390f35b34801561027b57600080fd5b5061028461073e565b604051808215151515815260200191505060405180910390f35b3480156102aa57600080fd5b506102b3610751565b005b60005481565b600260009054906101000a900473ffffffffffffffffffffffffffffffffffffffff1681565b600460009054906101000a900460ff161515156102fd57600080fd5b80600390805190602001906103139291906108d5565b5033600260006101000a81548173ffffffffffffffffffffffffffffffffffffffff021916908373ffffffffffffffffffffffffffffffffffffffff1602179055506001600460006101000a81548160ff0219169083151502179055507f3842f077057074c5b505a9e77a772028d7808b38c902ff35febc0ea170498b41338242604051808473ffffffffffffffffffffffffffffffffffffffff1673ffffffffffffffffffffffffffffffffffffffff16815260200180602001838152602001828103825284818151815260200191508051906020019080838360005b8381101561040c5780820151818401526020810190506103f1565b50505050905090810190601f1680156104395780820380516001836020036101000a031916815260200191505b5094505050505060405180910390a150565b600160009054906101000a900473ffffffffffffffffffffffffffffffffffffffff1681565b600460009054906101000a900460ff16151561048c57600080fd5b6000543411151561049c57600080fd5b6000600160009054906101000a900473ffffffffffffffffffffffffffffffffffffffff1673ffffffffffffffffffffffffffffffffffffffff16141580156104e757506000805414155b1561055857600160009054906101000a900473ffffffffffffffffffffffffffffffffffffffff1673ffffffffffffffffffffffffffffffffffffffff166108fc6000549081150290604051600060405180830381858888f19350505050158015610556573d6000803e3d6000fd5b505b33600160006101000a81548173ffffffffffffffffffffffffffffffffffffffff021916908373ffffffffffffffffffffffffffffffffffffffff160217905550346000819055507f71b6f2d0f4d4fa11c2dbb713a37af10a5e11cbc956de95ea04361ec2df93f63d3360033442604051808573ffffffffffffffffffffffffffffffffffffffff1673ffffffffffffffffffffffffffffffffffffffff1681526020018060200184815260200183815260200182810382528581815460018160011615610100020316600290048152602001915080546001816001161561010002031660029004801561068d5780601f106106625761010080835404028352916020019161068d565b820191906000526020600020905b81548152906001019060200180831161067057829003601f168201915b50509550505050505060405180910390a1565b60038054600181600116156101000203166002900480601f0160208091040260200160405190810160405280929190818152602001828054600181600116156101000203166002900480156107365780601f1061070b57610100808354040283529160200191610736565b820191906000526020600020905b81548152906001019060200180831161071957829003601f168201915b505050505081565b600460009054906101000a900460ff1681565b3373ffffffffffffffffffffffffffffffffffffffff16600260009054906101000a900473ffffffffffffffffffffffffffffffffffffffff1673ffffffffffffffffffffffffffffffffffffffff161415156107ad57600080fd5b600460009054906101000a900460ff1615156107c857600080fd5b6000600460006101000a81548160ff021916908315150217905550600260009054906101000a900473ffffffffffffffffffffffffffffffffffffffff1673ffffffffffffffffffffffffffffffffffffffff166108fc3073ffffffffffffffffffffffffffffffffffffffff16319081150290604051600060405180830381858888f19350505050158015610862573d6000803e3d6000fd5b506000600160006101000a81548173ffffffffffffffffffffffffffffffffffffffff021916908373ffffffffffffffffffffffffffffffffffffffff160217905550600080819055506020604051908101604052806000815250600390805190602001906108d29291906108d5565b50565b828054600181600116156101000203166002900490600052602060002090601f016020900481019282601f1061091657805160ff1916838001178555610944565b82800160010185558215610944579182015b82811115610943578251825591602001919060010190610928565b5b5090506109519190610955565b5090565b61097791905b8082111561097357600081600090555060010161095b565b5090565b905600a165627a7a7230582034bb0aad653d3d2f4643d1e9cc6d31adf341d074d00a97adb4750eed6db5f3670029",
  "source": "pragma solidity ^0.4.22;\n\ncontract Auction {\n\n  uint public bid;\n  address public highestBidder;\n  address public auctioneer;\n  string public good;\n  bool public running;\n\n  event BidReceived(address from, string good, uint bid, uint timestamp);\n\n  event AuctionStarted(address auctioneer, string good, uint timestamp);\n\n  constructor() public {\n    running = false;\n    highestBidder = 0;\n    bid = 0;\n    good = \"\";\n  }\n\n  function sendBid() public payable {\n\n    require(running);\n    require(msg.value > bid);\n\n    if(highestBidder != 0 && bid != 0){\n      highestBidder.transfer(bid);\n    }\n\n    highestBidder = msg.sender;\n    bid = msg.value;\n\n    emit BidReceived(msg.sender, good, msg.value, now);\n  }\n\n  modifier onlyAuctioneer() {\n    require(auctioneer == msg.sender);\n    _;\n  }\n\n  function startAuction(string _good) public {\n\n    require(!running);\n\n    good = _good;\n    auctioneer = msg.sender;\n    running = true;\n\n    emit AuctionStarted(msg.sender, _good, now);\n  }\n\n  function endAuction() public onlyAuctioneer {\n\n    require(running);\n\n    running = false;\n    auctioneer.transfer(address(this).balance);\n    highestBidder = 0;\n    bid = 0;\n    good = \"\";\n  }\n}\n",
  "sourcePath": "C:\\Users\\michael\\Documents\\blockchain\\EthereumAuction\\contracts\\Auction.sol",
  "compiler": {
    "name": "solc",
    "version": "0.4.23+commit.124ca40d.Emscripten.clang"
  },
  "schemaVersion": "2.0.0",
  "updatedAt": "2018-05-27T02:32:43.150Z"
}