{
  "contractName": "Offer",
  "abi": [
    {
      "constant": true,
      "inputs": [],
      "name": "seller",
      "outputs": [
        {
          "name": "",
          "type": "address"
        }
      ],
      "payable": false,
      "stateMutability": "view",
      "type": "function"
    },
    {
      "constant": true,
      "inputs": [],
      "name": "value",
      "outputs": [
        {
          "name": "",
          "type": "uint256"
        }
      ],
      "payable": false,
      "stateMutability": "view",
      "type": "function"
    },
    {
      "constant": true,
      "inputs": [],
      "name": "buyer",
      "outputs": [
        {
          "name": "",
          "type": "address"
        }
      ],
      "payable": false,
      "stateMutability": "view",
      "type": "function"
    },
    {
      "constant": true,
      "inputs": [],
      "name": "good",
      "outputs": [
        {
          "name": "",
          "type": "string"
        }
      ],
      "payable": false,
      "stateMutability": "view",
      "type": "function"
    },
    {
      "constant": true,
      "inputs": [],
      "name": "state",
      "outputs": [
        {
          "name": "",
          "type": "uint8"
        }
      ],
      "payable": false,
      "stateMutability": "view",
      "type": "function"
    },
    {
      "inputs": [
        {
          "name": "_value",
          "type": "uint256"
        },
        {
          "name": "_good",
          "type": "string"
        }
      ],
      "payable": false,
      "stateMutability": "nonpayable",
      "type": "constructor"
    },
    {
      "anonymous": false,
      "inputs": [],
      "name": "Aborted",
      "type": "event"
    },
    {
      "anonymous": false,
      "inputs": [],
      "name": "PurchaseConfirmed",
      "type": "event"
    },
    {
      "anonymous": false,
      "inputs": [],
      "name": "ItemReceived",
      "type": "event"
    },
    {
      "constant": false,
      "inputs": [],
      "name": "sendMoney",
      "outputs": [],
      "payable": true,
      "stateMutability": "payable",
      "type": "function"
    },
    {
      "constant": false,
      "inputs": [
        {
          "name": "ledgerAddress",
          "type": "address"
        }
      ],
      "name": "confirmReceived",
      "outputs": [],
      "payable": false,
      "stateMutability": "nonpayable",
      "type": "function"
    }
  ],
  "bytecode": "0x608060405234801561001057600080fd5b50604051610aa7380380610aa783398101806040528101908080519060200190929190805182019291905050506000600360146101000a81548160ff0219169083600281111561005c57fe5b021790555033600260006101000a81548173ffffffffffffffffffffffffffffffffffffffff021916908373ffffffffffffffffffffffffffffffffffffffff1602179055508160008190555080600190805190602001906100bf9291906100c7565b50505061016c565b828054600181600116156101000203166002900490600052602060002090601f016020900481019282601f1061010857805160ff1916838001178555610136565b82800160010185558215610136579182015b8281111561013557825182559160200191906001019061011a565b5b5090506101439190610147565b5090565b61016991905b8082111561016557600081600090555060010161014d565b5090565b90565b61092c8061017b6000396000f300608060405260043610610083576000357c0100000000000000000000000000000000000000000000000000000000900463ffffffff16806308551a53146100885780633fa4f245146100df5780637150d8ae1461010a5780638088934814610161578063aa8fb40b146101a4578063c19d93fb14610234578063cbedbf5a1461026d575b600080fd5b34801561009457600080fd5b5061009d610277565b604051808273ffffffffffffffffffffffffffffffffffffffff1673ffffffffffffffffffffffffffffffffffffffff16815260200191505060405180910390f35b3480156100eb57600080fd5b506100f461029d565b6040518082815260200191505060405180910390f35b34801561011657600080fd5b5061011f6102a3565b604051808273ffffffffffffffffffffffffffffffffffffffff1673ffffffffffffffffffffffffffffffffffffffff16815260200191505060405180910390f35b34801561016d57600080fd5b506101a2600480360381019080803573ffffffffffffffffffffffffffffffffffffffff1690602001909291905050506102c9565b005b3480156101b057600080fd5b506101b96106a2565b6040518080602001828103825283818151815260200191508051906020019080838360005b838110156101f95780820151818401526020810190506101de565b50505050905090810190601f1680156102265780820380516001836020036101000a031916815260200191505b509250505060405180910390f35b34801561024057600080fd5b50610249610740565b6040518082600281111561025957fe5b60ff16815260200191505060405180910390f35b610275610753565b005b600260009054906101000a900473ffffffffffffffffffffffffffffffffffffffff1681565b60005481565b600360009054906101000a900473ffffffffffffffffffffffffffffffffffffffff1681565b6000600360009054906101000a900473ffffffffffffffffffffffffffffffffffffffff1673ffffffffffffffffffffffffffffffffffffffff163373ffffffffffffffffffffffffffffffffffffffff16141515610390576040517f08c379a00000000000000000000000000000000000000000000000000000000081526004018080602001828103825260178152602001807f4f6e6c792062757965722063616e20646f20746869732e00000000000000000081525060200191505060405180910390fd5b600180600281111561039e57fe5b600360149054906101000a900460ff1660028111156103b957fe5b14151561042e576040517f08c379a000000000000000000000000000000000000000000000000000000000815260040180806020018281038252600e8152602001807f496e76616c69642073746174652e00000000000000000000000000000000000081525060200191505060405180910390fd5b6002600360146101000a81548160ff0219169083600281111561044d57fe5b0217905550600260009054906101000a900473ffffffffffffffffffffffffffffffffffffffff1673ffffffffffffffffffffffffffffffffffffffff166108fc3073ffffffffffffffffffffffffffffffffffffffff16319081150290604051600060405180830381858888f193505050501580156104d1573d6000803e3d6000fd5b508291508173ffffffffffffffffffffffffffffffffffffffff1663b780624b30336001600260009054906101000a900473ffffffffffffffffffffffffffffffffffffffff166040518563ffffffff167c0100000000000000000000000000000000000000000000000000000000028152600401808573ffffffffffffffffffffffffffffffffffffffff1673ffffffffffffffffffffffffffffffffffffffff1681526020018473ffffffffffffffffffffffffffffffffffffffff1673ffffffffffffffffffffffffffffffffffffffff168152602001806020018373ffffffffffffffffffffffffffffffffffffffff1673ffffffffffffffffffffffffffffffffffffffff1681526020018281038252848181546001816001161561010002031660029004815260200191508054600181600116156101000203166002900480156106625780601f1061063757610100808354040283529160200191610662565b820191906000526020600020905b81548152906001019060200180831161064557829003601f168201915b505095505050505050600060405180830381600087803b15801561068557600080fd5b505af1158015610699573d6000803e3d6000fd5b50505050505050565b60018054600181600116156101000203166002900480601f0160208091040260200160405190810160405280929190818152602001828054600181600116156101000203166002900480156107385780601f1061070d57610100808354040283529160200191610738565b820191906000526020600020905b81548152906001019060200180831161071b57829003601f168201915b505050505081565b600360149054906101000a900460ff1681565b600080600281111561076157fe5b600360149054906101000a900460ff16600281111561077c57fe5b1415156107f1576040517f08c379a000000000000000000000000000000000000000000000000000000000815260040180806020018281038252600e8152602001807f496e76616c69642073746174652e00000000000000000000000000000000000081525060200191505060405180910390fd5b600054341480151561086b576040517f08c379a00000000000000000000000000000000000000000000000000000000081526004018080602001828103825260118152602001807f436f6e646974696f6e206e6f74206d657400000000000000000000000000000081525060200191505060405180910390fd5b7fd5d55c8a68912e9a110618df8d5e2e83b8d83211c57a8ddd1203df92885dc88160405160405180910390a133600360006101000a81548173ffffffffffffffffffffffffffffffffffffffff021916908373ffffffffffffffffffffffffffffffffffffffff1602179055506001600360146101000a81548160ff021916908360028111156108f757fe5b021790555050505600a165627a7a7230582004cec7bacd7f756d059a645939ca84aaa8c9cc8d67b7296986f10394e0adab9e0029",
  "source": "pragma solidity ^0.4.22;\nimport \"./PublicLedger.sol\";\n\ncontract Offer {\n\n  uint public value;\n  string public good;\n  address public seller;\n  address public buyer;\n  enum State { Open, Locked, Sold }\n  State public state;\n\n  constructor(uint _value, string _good) public{\n    state = State.Open;\n    seller = msg.sender;\n    value = _value;\n    good = _good;\n  }\n\n  modifier condition(bool _condition) {\n    require(\n      _condition,\n        \"Condition not met\"\n    );\n    _;\n  }\n\n  modifier onlyBuyer() {\n    require(\n      msg.sender == buyer,\n      \"Only buyer can do this.\"\n    );\n    _;\n  }\n\n  modifier onlySeller() {\n    require(\n      msg.sender == seller,\n      \"Only seller can do this.\"\n    );\n    _;\n  }\n\n  modifier inState(State _state) {\n    require(\n      state == _state,\n      \"Invalid state.\"\n    );\n    _;\n  }\n\n  event Aborted();\n  event PurchaseConfirmed();\n  event ItemReceived();\n\n  function sendMoney() public inState(State.Open) condition(msg.value ==  value) payable\n  {\n    emit PurchaseConfirmed();\n    buyer = msg.sender;\n    state = State.Locked;\n  }\n\n  //never implement this in a real life application as a fraudulent buyer could use\n  //an intermediary offerContract to block the transfer of the funds to the seller\n  //use the withdraw pattern to avoid unresolvable lock-in scenarios\n  function confirmReceived(address ledgerAddress) public onlyBuyer inState(State.Locked) {\n    state = State.Sold;\n    seller.transfer(address(this).balance);\n    PublicLedger publicLedger = PublicLedger(ledgerAddress);\n    publicLedger.registerPurchase(address(this), msg.sender, good, seller);\n  }\n}\n",
  "sourcePath": "C:\\Users\\michael\\Documents\\blockchain\\EthereumAuction\\contracts\\Offer.sol",
  "compiler": {
    "name": "solc",
    "version": "0.4.23+commit.124ca40d.Emscripten.clang"
  },
  "schemaVersion": "2.0.0",
  "updatedAt": "2018-05-26T16:19:15.246Z"
}