{
  "contractName": "Property",
  "abi": [
    {
      "constant": true,
      "inputs": [],
      "name": "seller",
      "outputs": [
        {
          "name": "",
          "type": "address"
        }
      ],
      "payable": false,
      "stateMutability": "view",
      "type": "function"
    },
    {
      "constant": true,
      "inputs": [],
      "name": "value",
      "outputs": [
        {
          "name": "",
          "type": "uint256"
        }
      ],
      "payable": false,
      "stateMutability": "view",
      "type": "function"
    },
    {
      "constant": true,
      "inputs": [],
      "name": "geoLocation",
      "outputs": [
        {
          "name": "",
          "type": "string"
        }
      ],
      "payable": false,
      "stateMutability": "view",
      "type": "function"
    },
    {
      "constant": true,
      "inputs": [],
      "name": "buyer",
      "outputs": [
        {
          "name": "",
          "type": "address"
        }
      ],
      "payable": false,
      "stateMutability": "view",
      "type": "function"
    },
    {
      "constant": true,
      "inputs": [],
      "name": "description",
      "outputs": [
        {
          "name": "",
          "type": "string"
        }
      ],
      "payable": false,
      "stateMutability": "view",
      "type": "function"
    },
    {
      "constant": true,
      "inputs": [],
      "name": "state",
      "outputs": [
        {
          "name": "",
          "type": "uint8"
        }
      ],
      "payable": false,
      "stateMutability": "view",
      "type": "function"
    },
    {
      "inputs": [
        {
          "name": "ledgerAddress",
          "type": "address"
        },
        {
          "name": "_value",
          "type": "uint256"
        },
        {
          "name": "_geoLocation",
          "type": "string"
        },
        {
          "name": "_description",
          "type": "string"
        }
      ],
      "payable": false,
      "stateMutability": "nonpayable",
      "type": "constructor"
    },
    {
      "anonymous": false,
      "inputs": [],
      "name": "Aborted",
      "type": "event"
    },
    {
      "anonymous": false,
      "inputs": [],
      "name": "PurchaseConfirmed",
      "type": "event"
    },
    {
      "anonymous": false,
      "inputs": [],
      "name": "ItemReceived",
      "type": "event"
    },
    {
      "constant": false,
      "inputs": [],
      "name": "sendMoney",
      "outputs": [],
      "payable": true,
      "stateMutability": "payable",
      "type": "function"
    },
    {
      "constant": false,
      "inputs": [
        {
          "name": "ledgerAddress",
          "type": "address"
        }
      ],
      "name": "confirmReceived",
      "outputs": [],
      "payable": false,
      "stateMutability": "nonpayable",
      "type": "function"
    }
  ],
  "bytecode": "0x60806040523480156200001157600080fd5b5060405162000eec38038062000eec83398101806040528101908080519060200190929190805190602001909291908051820192919060200180518201929190505050600080600460146101000a81548160ff021916908360028111156200007557fe5b021790555033600360006101000a81548173ffffffffffffffffffffffffffffffffffffffff021916908373ffffffffffffffffffffffffffffffffffffffff160217905550836000819055508160029080519060200190620000da9291906200033d565b508260019080519060200190620000f39291906200033d565b508490508073ffffffffffffffffffffffffffffffffffffffff16634b9b0183303360016002336040518663ffffffff167c0100000000000000000000000000000000000000000000000000000000028152600401808673ffffffffffffffffffffffffffffffffffffffff1673ffffffffffffffffffffffffffffffffffffffff1681526020018573ffffffffffffffffffffffffffffffffffffffff1673ffffffffffffffffffffffffffffffffffffffff16815260200180602001806020018473ffffffffffffffffffffffffffffffffffffffff1673ffffffffffffffffffffffffffffffffffffffff1681526020018381038352868181546001816001161561010002031660029004815260200191508054600181600116156101000203166002900480156200026c5780601f1062000240576101008083540402835291602001916200026c565b820191906000526020600020905b8154815290600101906020018083116200024e57829003601f168201915b5050838103825285818154600181600116156101000203166002900481526020019150805460018160011615610100020316600290048015620002f35780601f10620002c757610100808354040283529160200191620002f3565b820191906000526020600020905b815481529060010190602001808311620002d557829003601f168201915b5050975050505050505050600060405180830381600087803b1580156200031957600080fd5b505af11580156200032e573d6000803e3d6000fd5b505050505050505050620003ec565b828054600181600116156101000203166002900490600052602060002090601f016020900481019282601f106200038057805160ff1916838001178555620003b1565b82800160010185558215620003b1579182015b82811115620003b057825182559160200191906001019062000393565b5b509050620003c09190620003c4565b5090565b620003e991905b80821115620003e5576000816000905550600101620003cb565b5090565b90565b610af080620003fc6000396000f30060806040526004361061008e576000357c0100000000000000000000000000000000000000000000000000000000900463ffffffff16806308551a53146100935780633fa4f245146100ea578063611ea73a146101155780637150d8ae146101a55780637284e416146101fc578063808893481461028c578063c19d93fb146102cf578063cbedbf5a14610308575b600080fd5b34801561009f57600080fd5b506100a8610312565b604051808273ffffffffffffffffffffffffffffffffffffffff1673ffffffffffffffffffffffffffffffffffffffff16815260200191505060405180910390f35b3480156100f657600080fd5b506100ff610338565b6040518082815260200191505060405180910390f35b34801561012157600080fd5b5061012a61033e565b6040518080602001828103825283818151815260200191508051906020019080838360005b8381101561016a57808201518184015260208101905061014f565b50505050905090810190601f1680156101975780820380516001836020036101000a031916815260200191505b509250505060405180910390f35b3480156101b157600080fd5b506101ba6103dc565b604051808273ffffffffffffffffffffffffffffffffffffffff1673ffffffffffffffffffffffffffffffffffffffff16815260200191505060405180910390f35b34801561020857600080fd5b50610211610402565b6040518080602001828103825283818151815260200191508051906020019080838360005b83811015610251578082015181840152602081019050610236565b50505050905090810190601f16801561027e5780820380516001836020036101000a031916815260200191505b509250505060405180910390f35b34801561029857600080fd5b506102cd600480360381019080803573ffffffffffffffffffffffffffffffffffffffff1690602001909291905050506104a0565b005b3480156102db57600080fd5b506102e4610904565b604051808260028111156102f457fe5b60ff16815260200191505060405180910390f35b610310610917565b005b600360009054906101000a900473ffffffffffffffffffffffffffffffffffffffff1681565b60005481565b60018054600181600116156101000203166002900480601f0160208091040260200160405190810160405280929190818152602001828054600181600116156101000203166002900480156103d45780601f106103a9576101008083540402835291602001916103d4565b820191906000526020600020905b8154815290600101906020018083116103b757829003601f168201915b505050505081565b600460009054906101000a900473ffffffffffffffffffffffffffffffffffffffff1681565b60028054600181600116156101000203166002900480601f0160208091040260200160405190810160405280929190818152602001828054600181600116156101000203166002900480156104985780601f1061046d57610100808354040283529160200191610498565b820191906000526020600020905b81548152906001019060200180831161047b57829003601f168201915b505050505081565b6000600460009054906101000a900473ffffffffffffffffffffffffffffffffffffffff1673ffffffffffffffffffffffffffffffffffffffff163373ffffffffffffffffffffffffffffffffffffffff16141515610567576040517f08c379a00000000000000000000000000000000000000000000000000000000081526004018080602001828103825260178152602001807f4f6e6c792062757965722063616e20646f20746869732e00000000000000000081525060200191505060405180910390fd5b600180600281111561057557fe5b600460149054906101000a900460ff16600281111561059057fe5b141515610605576040517f08c379a000000000000000000000000000000000000000000000000000000000815260040180806020018281038252600e8152602001807f496e76616c69642073746174652e00000000000000000000000000000000000081525060200191505060405180910390fd5b6002600460146101000a81548160ff0219169083600281111561062457fe5b0217905550600360009054906101000a900473ffffffffffffffffffffffffffffffffffffffff1673ffffffffffffffffffffffffffffffffffffffff166108fc3073ffffffffffffffffffffffffffffffffffffffff16319081150290604051600060405180830381858888f193505050501580156106a8573d6000803e3d6000fd5b508291508173ffffffffffffffffffffffffffffffffffffffff16634b9b0183303360016002600360009054906101000a900473ffffffffffffffffffffffffffffffffffffffff166040518663ffffffff167c0100000000000000000000000000000000000000000000000000000000028152600401808673ffffffffffffffffffffffffffffffffffffffff1673ffffffffffffffffffffffffffffffffffffffff1681526020018573ffffffffffffffffffffffffffffffffffffffff1673ffffffffffffffffffffffffffffffffffffffff16815260200180602001806020018473ffffffffffffffffffffffffffffffffffffffff1673ffffffffffffffffffffffffffffffffffffffff16815260200183810383528681815460018160011615610100020316600290048152602001915080546001816001161561010002031660029004801561083f5780601f106108145761010080835404028352916020019161083f565b820191906000526020600020905b81548152906001019060200180831161082257829003601f168201915b50508381038252858181546001816001161561010002031660029004815260200191508054600181600116156101000203166002900480156108c25780601f10610897576101008083540402835291602001916108c2565b820191906000526020600020905b8154815290600101906020018083116108a557829003601f168201915b5050975050505050505050600060405180830381600087803b1580156108e757600080fd5b505af11580156108fb573d6000803e3d6000fd5b50505050505050565b600460149054906101000a900460ff1681565b600080600281111561092557fe5b600460149054906101000a900460ff16600281111561094057fe5b1415156109b5576040517f08c379a000000000000000000000000000000000000000000000000000000000815260040180806020018281038252600e8152602001807f496e76616c69642073746174652e00000000000000000000000000000000000081525060200191505060405180910390fd5b6000543414801515610a2f576040517f08c379a00000000000000000000000000000000000000000000000000000000081526004018080602001828103825260118152602001807f436f6e646974696f6e206e6f74206d657400000000000000000000000000000081525060200191505060405180910390fd5b7fd5d55c8a68912e9a110618df8d5e2e83b8d83211c57a8ddd1203df92885dc88160405160405180910390a133600460006101000a81548173ffffffffffffffffffffffffffffffffffffffff021916908373ffffffffffffffffffffffffffffffffffffffff1602179055506001600460146101000a81548160ff02191690836002811115610abb57fe5b021790555050505600a165627a7a72305820a17353de09f442da9fd30b35535e5c53bff52447f53319b9777bed5026aae28c0029",
  "source": "pragma solidity ^0.4.22;\nimport \"./PublicLedger.sol\";\n\ncontract Property {\n\n  uint public value;\n  string public geoLocation;\n  string public description;\n  address public seller;\n  address public buyer;\n  enum State { Open, Locked, Sold }\n  State public state;\n\n  //In a real world Property Real Estate System rather a\n  //trustworthy Oracle would initially feed in this data\n  constructor(address ledgerAddress, uint _value, string _geoLocation, string _description) public{\n    state = State.Open;\n    seller = msg.sender;\n    value = _value;\n    description = _description;\n    geoLocation = _geoLocation;\n    PublicLedger publicLedger = PublicLedger(ledgerAddress);\n    publicLedger.registerProperty(address(this), msg.sender, geoLocation, description, msg.sender);\n  }\n\n  modifier condition(bool _condition) {\n    require(\n      _condition,\n        \"Condition not met\"\n    );\n    _;\n  }\n\n  modifier onlyBuyer() {\n    require(\n      msg.sender == buyer,\n      \"Only buyer can do this.\"\n    );\n    _;\n  }\n\n  modifier onlySeller() {\n    require(\n      msg.sender == seller,\n      \"Only seller can do this.\"\n    );\n    _;\n  }\n\n  modifier inState(State _state) {\n    require(\n      state == _state,\n      \"Invalid state.\"\n    );\n    _;\n  }\n\n  event Aborted();\n  event PurchaseConfirmed();\n  event ItemReceived();\n\n  function sendMoney() public inState(State.Open) condition(msg.value ==  value) payable\n  {\n    emit PurchaseConfirmed();\n    buyer = msg.sender;\n    state = State.Locked;\n  }\n\n  //never implement this in a real life application as a fraudulent buyer could use\n  //an intermediary offerContract to block the transfer of the funds to the seller\n  //use the withdraw pattern to avoid unresolvable lock-in scenarios\n  function confirmReceived(address ledgerAddress) public onlyBuyer inState(State.Locked) {\n    state = State.Sold;\n    seller.transfer(address(this).balance);\n    PublicLedger publicLedger = PublicLedger(ledgerAddress);\n    publicLedger.registerProperty(address(this), msg.sender, geoLocation, description, seller);\n  }\n}\n",
  "sourcePath": "C:\\Users\\michael\\Documents\\blockchain\\EthereumAuction\\contracts\\Property.sol",
  "compiler": {
    "name": "solc",
    "version": "0.4.23+commit.124ca40d.Emscripten.clang"
  },
  "schemaVersion": "2.0.0",
  "updatedAt": "2018-05-27T02:32:36.259Z"
}