{
  "contractName": "PublicLedger",
  "abi": [
    {
      "constant": true,
      "inputs": [
        {
          "name": "",
          "type": "uint256"
        }
      ],
      "name": "propertyTable",
      "outputs": [
        {
          "name": "propertyContract",
          "type": "address"
        },
        {
          "name": "geoLocation",
          "type": "string"
        },
        {
          "name": "description",
          "type": "string"
        },
        {
          "name": "seller",
          "type": "address"
        },
        {
          "name": "newOwner",
          "type": "address"
        }
      ],
      "payable": false,
      "stateMutability": "view",
      "type": "function"
    },
    {
      "inputs": [],
      "payable": false,
      "stateMutability": "nonpayable",
      "type": "constructor"
    },
    {
      "constant": true,
      "inputs": [],
      "name": "propertyTableSize",
      "outputs": [
        {
          "name": "",
          "type": "uint256"
        }
      ],
      "payable": false,
      "stateMutability": "view",
      "type": "function"
    },
    {
      "constant": false,
      "inputs": [
        {
          "name": "_propertyContract",
          "type": "address"
        },
        {
          "name": "_newOwner",
          "type": "address"
        },
        {
          "name": "_geoLocation",
          "type": "string"
        },
        {
          "name": "_description",
          "type": "string"
        },
        {
          "name": "_oldOwner",
          "type": "address"
        }
      ],
      "name": "registerProperty",
      "outputs": [],
      "payable": false,
      "stateMutability": "nonpayable",
      "type": "function"
    }
  ],
  "bytecode": "0x608060405234801561001057600080fd5b506107a3806100206000396000f300608060405260043610610057576000357c0100000000000000000000000000000000000000000000000000000000900463ffffffff1680632908676e1461005c5780634b9b018314610207578063f9a1570914610316575b600080fd5b34801561006857600080fd5b5061008760048036038101908080359060200190929190505050610341565b604051808673ffffffffffffffffffffffffffffffffffffffff1673ffffffffffffffffffffffffffffffffffffffff16815260200180602001806020018573ffffffffffffffffffffffffffffffffffffffff1673ffffffffffffffffffffffffffffffffffffffff1681526020018473ffffffffffffffffffffffffffffffffffffffff1673ffffffffffffffffffffffffffffffffffffffff168152602001838103835287818151815260200191508051906020019080838360005b83811015610161578082015181840152602081019050610146565b50505050905090810190601f16801561018e5780820380516001836020036101000a031916815260200191505b50838103825286818151815260200191508051906020019080838360005b838110156101c75780820151818401526020810190506101ac565b50505050905090810190601f1680156101f45780820380516001836020036101000a031916815260200191505b5097505050505050505060405180910390f35b34801561021357600080fd5b50610314600480360381019080803573ffffffffffffffffffffffffffffffffffffffff169060200190929190803573ffffffffffffffffffffffffffffffffffffffff169060200190929190803590602001908201803590602001908080601f0160208091040260200160405190810160405280939291908181526020018383808284378201915050505050509192919290803590602001908201803590602001908080601f0160208091040260200160405190810160405280939291908181526020018383808284378201915050505050509192919290803573ffffffffffffffffffffffffffffffffffffffff169060200190929190505050610516565b005b34801561032257600080fd5b5061032b6106c6565b6040518082815260200191505060405180910390f35b60008181548110151561035057fe5b90600052602060002090600502016000915090508060000160009054906101000a900473ffffffffffffffffffffffffffffffffffffffff1690806001018054600181600116156101000203166002900480601f0160208091040260200160405190810160405280929190818152602001828054600181600116156101000203166002900480156104225780601f106103f757610100808354040283529160200191610422565b820191906000526020600020905b81548152906001019060200180831161040557829003601f168201915b505050505090806002018054600181600116156101000203166002900480601f0160208091040260200160405190810160405280929190818152602001828054600181600116156101000203166002900480156104c05780601f10610495576101008083540402835291602001916104c0565b820191906000526020600020905b8154815290600101906020018083116104a357829003601f168201915b5050505050908060030160009054906101000a900473ffffffffffffffffffffffffffffffffffffffff16908060040160009054906101000a900473ffffffffffffffffffffffffffffffffffffffff16905085565b600060a0604051908101604052808773ffffffffffffffffffffffffffffffffffffffff1681526020018581526020018481526020018373ffffffffffffffffffffffffffffffffffffffff1681526020018673ffffffffffffffffffffffffffffffffffffffff168152509080600181540180825580915050906001820390600052602060002090600502016000909192909190915060008201518160000160006101000a81548173ffffffffffffffffffffffffffffffffffffffff021916908373ffffffffffffffffffffffffffffffffffffffff16021790555060208201518160010190805190602001906106109291906106d2565b50604082015181600201908051906020019061062d9291906106d2565b5060608201518160030160006101000a81548173ffffffffffffffffffffffffffffffffffffffff021916908373ffffffffffffffffffffffffffffffffffffffff16021790555060808201518160040160006101000a81548173ffffffffffffffffffffffffffffffffffffffff021916908373ffffffffffffffffffffffffffffffffffffffff1602179055505050505050505050565b60008080549050905090565b828054600181600116156101000203166002900490600052602060002090601f016020900481019282601f1061071357805160ff1916838001178555610741565b82800160010185558215610741579182015b82811115610740578251825591602001919060010190610725565b5b50905061074e9190610752565b5090565b61077491905b80821115610770576000816000905550600101610758565b5090565b905600a165627a7a72305820f07b8923f291063db4b43a80c9e487fe7f6f88fc4c1a29b981ebb2da3cdffe3f0029",
  "source": "pragma solidity ^0.4.22;\n\ncontract PublicLedger {\n\n  Property[] public propertyTable;\n\n  struct Property {\n    address propertyContract;\n    string geoLocation;\n    string description;\n    address seller;\n    address newOwner;\n  }\n\n  constructor() public{\n  }\n\n  function propertyTableSize() public view returns (uint) {\n    return propertyTable.length;\n}\n\n  function registerProperty(address _propertyContract, address _newOwner, string _geoLocation, string _description, address _oldOwner) public {\n    propertyTable.push( Property({\n      propertyContract: _propertyContract,\n      geoLocation: _geoLocation,\n      description: _description,\n      newOwner: _newOwner,\n      seller: _oldOwner\n    }));\n  }\n}\n",
  "sourcePath": "C:\\Users\\michael\\Documents\\blockchain\\EthereumAuction\\contracts\\PublicLedger.sol",
  "compiler": {
    "name": "solc",
    "version": "0.4.23+commit.124ca40d.Emscripten.clang"
  },
  "schemaVersion": "2.0.0",
  "updatedAt": "2018-05-27T02:32:43.147Z"
}