{
  "contractName": "Purchase",
  "abi": [
    {
      "constant": true,
      "inputs": [],
      "name": "seller",
      "outputs": [
        {
          "name": "",
          "type": "address"
        }
      ],
      "payable": false,
      "stateMutability": "view",
      "type": "function"
    },
    {
      "constant": true,
      "inputs": [],
      "name": "value",
      "outputs": [
        {
          "name": "",
          "type": "uint256"
        }
      ],
      "payable": false,
      "stateMutability": "view",
      "type": "function"
    },
    {
      "constant": true,
      "inputs": [],
      "name": "buyer",
      "outputs": [
        {
          "name": "",
          "type": "address"
        }
      ],
      "payable": false,
      "stateMutability": "view",
      "type": "function"
    },
    {
      "constant": true,
      "inputs": [],
      "name": "good",
      "outputs": [
        {
          "name": "",
          "type": "string"
        }
      ],
      "payable": false,
      "stateMutability": "view",
      "type": "function"
    },
    {
      "constant": true,
      "inputs": [],
      "name": "state",
      "outputs": [
        {
          "name": "",
          "type": "uint8"
        }
      ],
      "payable": false,
      "stateMutability": "view",
      "type": "function"
    },
    {
      "inputs": [
        {
          "name": "_value",
          "type": "uint256"
        },
        {
          "name": "_good",
          "type": "string"
        }
      ],
      "payable": false,
      "stateMutability": "nonpayable",
      "type": "constructor"
    },
    {
      "anonymous": false,
      "inputs": [],
      "name": "Aborted",
      "type": "event"
    },
    {
      "anonymous": false,
      "inputs": [],
      "name": "PurchaseConfirmed",
      "type": "event"
    },
    {
      "anonymous": false,
      "inputs": [],
      "name": "ItemReceived",
      "type": "event"
    },
    {
      "constant": false,
      "inputs": [],
      "name": "sendMoney",
      "outputs": [],
      "payable": true,
      "stateMutability": "payable",
      "type": "function"
    },
    {
      "constant": false,
      "inputs": [],
      "name": "confirmReceived",
      "outputs": [],
      "payable": false,
      "stateMutability": "nonpayable",
      "type": "function"
    }
  ],
  "bytecode": "0x608060405234801561001057600080fd5b506040516108da3803806108da83398101806040528101908080519060200190929190805182019291905050506000600360146101000a81548160ff0219169083600281111561005c57fe5b021790555033600260006101000a81548173ffffffffffffffffffffffffffffffffffffffff021916908373ffffffffffffffffffffffffffffffffffffffff1602179055508160008190555080600190805190602001906100bf9291906100c7565b50505061016c565b828054600181600116156101000203166002900490600052602060002090601f016020900481019282601f1061010857805160ff1916838001178555610136565b82800160010185558215610136579182015b8281111561013557825182559160200191906001019061011a565b5b5090506101439190610147565b5090565b61016991905b8082111561016557600081600090555060010161014d565b5090565b90565b61075f8061017b6000396000f300608060405260043610610083576000357c0100000000000000000000000000000000000000000000000000000000900463ffffffff16806308551a53146100885780633fa4f245146100df5780637150d8ae1461010a57806373fac6f014610161578063aa8fb40b14610178578063c19d93fb14610208578063cbedbf5a14610241575b600080fd5b34801561009457600080fd5b5061009d61024b565b604051808273ffffffffffffffffffffffffffffffffffffffff1673ffffffffffffffffffffffffffffffffffffffff16815260200191505060405180910390f35b3480156100eb57600080fd5b506100f4610271565b6040518082815260200191505060405180910390f35b34801561011657600080fd5b5061011f610277565b604051808273ffffffffffffffffffffffffffffffffffffffff1673ffffffffffffffffffffffffffffffffffffffff16815260200191505060405180910390f35b34801561016d57600080fd5b5061017661029d565b005b34801561018457600080fd5b5061018d61053e565b6040518080602001828103825283818151815260200191508051906020019080838360005b838110156101cd5780820151818401526020810190506101b2565b50505050905090810190601f1680156101fa5780820380516001836020036101000a031916815260200191505b509250505060405180910390f35b34801561021457600080fd5b5061021d6105dc565b6040518082600281111561022d57fe5b60ff16815260200191505060405180910390f35b6102496105ef565b005b600260009054906101000a900473ffffffffffffffffffffffffffffffffffffffff1681565b60005481565b600360009054906101000a900473ffffffffffffffffffffffffffffffffffffffff1681565b600360009054906101000a900473ffffffffffffffffffffffffffffffffffffffff1673ffffffffffffffffffffffffffffffffffffffff163373ffffffffffffffffffffffffffffffffffffffff16141515610362576040517f08c379a00000000000000000000000000000000000000000000000000000000081526004018080602001828103825260178152602001807f4f6e6c792062757965722063616e20646f20746869732e00000000000000000081525060200191505060405180910390fd5b600180600281111561037057fe5b600360149054906101000a900460ff16600281111561038b57fe5b141515610400576040517f08c379a000000000000000000000000000000000000000000000000000000000815260040180806020018281038252600e8152602001807f496e76616c69642073746174652e00000000000000000000000000000000000081525060200191505060405180910390fd5b7fe89152acd703c9d8c7d28829d443260b411454d45394e7995815140c8cbcbcf760405160405180910390a16002600360146101000a81548160ff0219169083600281111561044b57fe5b0217905550600360009054906101000a900473ffffffffffffffffffffffffffffffffffffffff1673ffffffffffffffffffffffffffffffffffffffff166108fc6000549081150290604051600060405180830381858888f193505050501580156104ba573d6000803e3d6000fd5b50600260009054906101000a900473ffffffffffffffffffffffffffffffffffffffff1673ffffffffffffffffffffffffffffffffffffffff166108fc3073ffffffffffffffffffffffffffffffffffffffff16319081150290604051600060405180830381858888f1935050505015801561053a573d6000803e3d6000fd5b5050565b60018054600181600116156101000203166002900480601f0160208091040260200160405190810160405280929190818152602001828054600181600116156101000203166002900480156105d45780601f106105a9576101008083540402835291602001916105d4565b820191906000526020600020905b8154815290600101906020018083116105b757829003601f168201915b505050505081565b600360149054906101000a900460ff1681565b60008060028111156105fd57fe5b600360149054906101000a900460ff16600281111561061857fe5b14151561068d576040517f08c379a000000000000000000000000000000000000000000000000000000000815260040180806020018281038252600e8152602001807f496e76616c69642073746174652e00000000000000000000000000000000000081525060200191505060405180910390fd5b600054341480151561069e57600080fd5b7fd5d55c8a68912e9a110618df8d5e2e83b8d83211c57a8ddd1203df92885dc88160405160405180910390a133600360006101000a81548173ffffffffffffffffffffffffffffffffffffffff021916908373ffffffffffffffffffffffffffffffffffffffff1602179055506001600360146101000a81548160ff0219169083600281111561072a57fe5b021790555050505600a165627a7a723058209a96ed52f44ef27de59b3f19fa3cfa2b6946aa553b14d1d01b74d1f02d7a7b930029",
  "source": "pragma solidity ^0.4.22;\n\ncontract Purchase {\n\n  uint public value;\n  string public good;\n  address public seller;\n  address public buyer;\n  enum State { Open, Locked, Sold }\n  State public state;\n\n  constructor(uint _value, string _good) public{\n    state = State.Open;\n    seller = msg.sender;\n    value = _value;\n    good = _good;\n  }\n\n  modifier condition(bool _condition) {\n    require(_condition);\n    _;\n  }\n\n  modifier onlyBuyer() {\n    require(\n      msg.sender == buyer,\n      \"Only buyer can do this.\"\n    );\n    _;\n  }\n\n  modifier onlySeller() {\n    require(\n      msg.sender == seller,\n      \"Only seller can do this.\"\n    );\n    _;\n  }\n\n  modifier inState(State _state) {\n    require(\n      state == _state,\n      \"Invalid state.\"\n    );\n    _;\n  }\n\n  event Aborted();\n  event PurchaseConfirmed();\n  event ItemReceived();\n\n  function sendMoney() public inState(State.Open) condition(msg.value ==  value) payable\n  {\n    emit PurchaseConfirmed();\n    buyer = msg.sender;\n    state = State.Locked;\n  }\n\n  //never implement this in a real life application as a fraudulent buyer could use\n  //an intermediary contract to block the transfer of the funds to the seller\n  //use the withdraw pattern to avoid unresolvable lock-in scenarios\n  function confirmReceived() public onlyBuyer inState(State.Locked) {\n    emit ItemReceived();\n    state = State.Sold;\n    buyer.transfer(value);\n    seller.transfer(address(this).balance);\n  }\n}\n",
  "sourcePath": "C:\\Users\\michael\\Documents\\blockchain\\EthereumAuction\\contracts\\Purchase.sol",
  "compiler": {
    "name": "solc",
    "version": "0.4.23+commit.124ca40d.Emscripten.clang"
  },
  "schemaVersion": "2.0.0",
  "updatedAt": "2018-05-20T00:36:25.069Z"
}